:1000000028C04CC044C14AC049C059C347C046C0BB
:1000100045C044C043C042C041C040C03FC00102CF
:100020000000040000000000010204081020200469
:100030001008020202020202020202020000000094
:1000400036000000000038000000000037005D00AE
:10005000630011241FBECFE5D2E0DEBFCDBF10E0AC
:10006000A0E6B0E0E2E9F8E002C005900D92A0370A
:10007000B107D9F720E0A0E7B0E001C01D92AC3D88
:10008000B207E1F710E0C0E5D0E003C02297FE011F
:10009000F0D3CE34D107D1F708D3EFC3B1CF60E0AE
:1000A00083E06DD261E084E06AD240E855E260E02E
:1000B00070E080E790E0E7C1089520E044E063E06D
:1000C00080E790E0B2C180E790E05BC12091D10071
:1000D0003091D20028173907B9F490918F008091A0
:1000E0009000981789F0E0918F00F0E0EF56FF4FF5
:1000F000808120918F0030E02F5F3F4F2F73332797
:1001000020938F0090E008958FEF9FEF08951F9345
:10011000CF93DF93DC015C968D919C915D97009766
:1001200049F481E090E013969C938E93129780E0BF
:1001300090E03BC05196ED91FC91529750962C91D6
:100140005097322F30951FB75E964C915E9741FBCA
:10015000772770F941FD6095F8944081772311F07D
:10016000422B01C043234083EC012197F1F748E083
:10017000508160FF02C0522B01C053235083EC0119
:100180002197F1F76695415099F78081772311F017
:10019000832301C0822B80831FBF5C968D919C912D
:1001A0005D970197F1F781E090E0DF91CF911F918A
:1001B000089508952091D1003091D2002817390771
:1001C00071F490918F0080919000981741F0E09128
:1001D0008F00F0E0EF56FF4F808190E008958FEFA1
:1001E0009FEF08952091D1003091D2002817390750
:1001F00069F48091900020918F0090E0805C9F4F87
:10020000821B910960E470E0CDD2089580E090E017
:100210000895E091D100F091D200E817F90769F450
:10022000A389B4899C918589809589238C931092A8
:10023000D2001092D10081E0089580E00895CF931C
:10024000DF93EC018A8D9B8D892BE9F08091D100A1
:100250009091D2008C179D07B1F0009709F0D9DF7B
:100260008E8D8E7F8E8F1092900010928F00D09383
:10027000D200C093D100EB89FC8980819D89892BB4
:10028000808381E001C080E0DF91CF9108951F92CB
:100290000F920FB60F9211242F933F934F935F93BA
:1002A0006F937F938F939F93AF93BF93EF93FF933E
:1002B000E091D100F091D200309709F451C0868DC1
:1002C000A685B785958581FF04C08C91892329F483
:1002D00047C08C91892309F043C0A389B4899C91BC
:1002E0008589809589238C93868997890197F1F771
:1002F000208D318DA685B785758558E040E0C90110
:100300000197F1F7842F90E095958795482F6C9190
:10031000672309F04068515091F7868D81FD409523
:100320008091900090E001968F73992720918F0023
:10033000281749F0A0919000B0E0AF56BF4F4C9302
:100340008093900003C0868D8160868F828D938D0F
:100350000197F1F7A389B4898C919589892B8C93A6
:10036000FF91EF91BF91AF919F918F917F916F918D
:100370005F914F913F912F910F900FBE0F901F9063
:10038000189524E630E0FC013183208342CF1F938F
:10039000CF93DF93EC01162F6E8D6695617081E02F
:1003A0006827812F25D161E0812FE9D0812F90E04E
:1003B000FC01E85DFF4FE491E88BFC01EE5CFF4F30
:1003C000E491F0E0EE0FFF1FEE5BFF4F85919491FB
:1003D0009A8B898BDF91CF911F9108951F93CF93B3
:1003E000DF93EC01162F60E0812FC9D08E8D81FD47
:1003F00003C061E0812FFCD01C87812F90E0FC01BD
:10040000E85DFF4FE491ED87FC01EE5CFF4FE49166
:10041000F0E0EE0FFF1FE45CFF4F859194919F8702
:100420008E87DF91CF911F910895FF920F931F93B5
:10043000CF93DF93EC01F62E522F1B821A8208EE27
:1004400013E020E030E00C831D832E833F8384E69D
:1004500090E0998388831F8A1E8A198E188E1B8EBE
:100460001A8E1D8E1C8E8E8D8E7F50FB81F98E8F85
:10047000642FCE018CDF6F2DCE01DF91CF911F91C4
:100480000F91FF90ABCFCF93DF93EC019A01AB01BB
:100490001B8E1A8E198E188E1F8A1E8A60E970EDC7
:1004A00083E090E0B4D1C9012430310520F0B901D6
:1004B0006350710902C061E070E07D8F6C8F6C85C4
:1004C000653008F03EC0B9017695679564317105D5
:1004D00018F06351710902C061E070E07F8B6E8B90
:1004E000069718F0C901059702C081E090E0998F46
:1004F000888FC90163E070E044D196958795969501
:1005000087958D30910510F00C9702C081E090E046
:100510009B8F8A8F8BB780628BBF2C85253018F418
:1005200085E390E002C080E090E09C8B8B8B81E0C3
:1005300001C0880F2A95EAF78D8B8C8D9D8D0197D0
:10054000F1F7CE01DF91CF917ACE823081F018F4AD
:10055000813051F00895833019F0843009F0089506
:100560008CB58F7D8CBD08958AB58F7702C08AB512
:100570008F7D8ABD08958CB580648CBD0895CF931E
:10058000DF9390E0FC01E85DFF4F2491FC01EE5CFD
:10059000FF4F8491882349F190E0880F991FFC0157
:1005A000E85BFF4FA591B4918E5B9F4FFC01C59115
:1005B000D4919FB7611108C0F8948C912095822343
:1005C0008C93888182230AC0623051F4F8948C9114
:1005D000322F309583238C938881822B888304C0AB
:1005E000F8948C91822B8C939FBFDF91CF910895CB
:1005F0000F931F93CF93DF931F92CDB7DEB7282FB2
:1006000030E0F901E25EFF4F8491F901E85DFF4FB0
:100610001491F901EE5CFF4F04910023C1F088238F
:1006200019F0698392DF6981E02FF0E0EE0FFF1F80
:10063000EE5BFF4FA591B4919FB7F8948C91611137
:1006400003C01095812301C0812B8C939FBF0F9015
:10065000DF91CF911F910F910895CF92DF92EF928A
:10066000FF920F931F93CF93DF937C016A01EB01FD
:1006700000E010E00C151D0571F06991D701ED91B6
:10068000FC910190F081E02DC7010995892B19F0AB
:100690000F5F1F4FEFCFC801DF91CF911F910F91D7
:1006A000FF90EF90DF90CF90089553D064DFF7DC98
:1006B000C0E0D0E001DD2097E9F3A2DCFBCF1F9280
:1006C0000F920FB60F9211242F933F938F939F9306
:1006D000AF93BF938091D4009091D500A091D600A4
:1006E000B091D7003091D30020E3230F2D3720F4B1
:1006F0004096A11DB11D05C023EB230F4196A11DFE
:10070000B11D2093D3008093D4009093D500A09383
:10071000D600B093D7008091D8009091D900A091D5
:10072000DA00B091DB000196A11DB11D8093D800C5
:100730009093D900A093DA00B093DB00BF91AF9102
:100740009F918F913F912F910F900FBE0F901F900F
:10075000189578948AB582608ABD8AB581608ABD11
:1007600083B7826083BF83B7816083BF89B78260AC
:1007700089BF80B7826080BF3298319A309A379AA9
:1007800008950024552704C0080E591F880F991F8B
:10079000009729F076956795B8F37105B9F7802D24
:1007A000952F089597FB072E16F4009406D077FD39
:1007B00008D049D007FC05D03EF4909581959F4F15
:1007C0000895709561957F4F0895A1E21A2EAA1B96
:1007D000BB1BFD010DC0AA1FBB1FEE1FFF1FA217F1
:1007E000B307E407F50720F0A21BB30BE40BF50BEE
:1007F000661F771F881F991F1A9469F76095709577
:10080000809590959B01AC01BD01CF010895052E07
:1008100097FB16F400940FD057FD05D0D6DF07FCE8
:1008200002D046F408C050954095309521953F4F31
:100830004F4F5F4F089590958095709561957F4FCC
:100840008F4F9F4F0895AA1BBB1B51E107C0AA1FE2
:10085000BB1FA617B70710F0A61BB70B881F991F61
:100860005A95A9F780959095BC01CD010895EE0F9A
:10087000FF1F0590F491E02D099410E0C0E5D0E051
:1008800003C0FE01F6DF2296C235D107D1F7F894F6
:02089000FFCF98
:100892000000000087002D03F2006600DA00D90094
:00000001FF
